:020000040000FA
:100000002030A300A2012E28A0000308A100831223
:100010000B1D1B28A20B1A28A30B1A282030A300A3
:100020000130A404271C16280230A404432027080A
:100030004A20A70A0B110C1C2728A50803192628FB
:10004000851E25288512A503262885160C10210853
:10005000830020080315211D031109008501831663
:10006000DF3085000F30810001308C008312810168
:10007000E0308B008C0125309000A401A501A60181
:10008000A7016400412885128E018F012408A50074
:10009000A401080083169A00063026079B009B08DF
:1000A00003195E281C158B1355309D00AA309D0046
:1000B0009C148B179C185A281C11A60A831208003E
:02400E000C3F65
:0E4200000000000000000000AA005500FF00B2
:00000001FF
